:060000000A128A11E72F2D
:10000C0008000030FC000030FB000030FA0000302B
:10001C00F900730872047104700403191628172868
:10002C006428FD01FD0A27280130F8000310F00DAB
:10003C00F10DF20DF30DF80B1C280130FF007F08B9
:10004C00FD07F31F2A282B281A280130F80003106B
:10005C00F90DFA0DFB0DFC0DF80B2D28730877022A
:10006C00031D422872087602031D4228710875028E
:10007C00031D422870087402031C45284628552885
:10008C007008F4027108031C710FF5027208031C4E
:10009C00720FF6027308031C730FF7027914013008
:1000AC000310F30CF20CF10CF00CFF3E031D562860
:1000BC000130FD02031D632864282B287C08F30003
:1000CC007B08F2007A08F1007908F00008003F3054
:1000DC0083160313CC008030CB000030CA000030F4
:1000EC00C900B001B1014608F3004508F20044080C
:1000FC00F1004308F0000030F7000030F60000304B
:10010C00F5000030F4000A168A1504270A128A1129
:10011C00031891289228A32AA328831603133708BF
:10012C00CC003608CB003508CA003408C9000130B1
:10013C00B0070318B10A0030B10741308312031322
:10014C00A3002030A2000030A1000030A0008316D4
:10015C0003134C0883120313A700831603134B08D5
:10016C0083120313A600831603134A088312031386
:10017C00A50083160313490883120313A4000A1263
:10018C008A15BB240A128A118312031323088316BF
:10019C000313B70083120313220883160313B6004C
:1001AC0083120313210883160313B5008312031360
:1001BC00200883160313B400430883120313CB00E7
:1001CC0083160313440883120313CC008316031302
:1001DC00450883120313CD008316031346088312BC
:1001EC000313CE0083160313340883120313CB02BC
:1001FC00831603133508031C350F052908298312B0
:10020C000313CC02831603133608031C360F0F2975
:10021C00122983120313CD02831603133708031C10
:10022C00370F19291C2983120313CE0283160313CB
:10023C00831203134E08F3004D08F2004C08F10032
:10024C004B08F0000A168A1525240A128A11F31B92
:10025C003F297308031D40297208031D40297108AA
:10026C00031D402902307002031D3C29031C3F2949
:10027C004029932883160313370883120313BD00F8
:10028C0083160313360883120313BC00831603135F
:10029C00350883120313BB0083160313340883122F
:1002AC000313BA0083160313460883120313C10009
:1002BC0083160313450883120313C000831603131C
:1002CC00440883120313BF008316031343088312DD
:1002DC000313BE000A168A113D220A128A11031C4E
:1002EC00782979299328831603134308831203135F
:1002FC00CB0083160313440883120313CC0083161C
:10030C000313450883120313CD0083160313460809
:10031C0083120313CE0083160313490883120313AD
:10032C00CB02831603134A08031C4A0F9E29A129EA
:10033C0083120313CC02831603134B08031C4B0FBD
:10034C00A829AB2983120313CD02831603134C087F
:10035C00031C4C0FB229B52983120313CE0283164A
:10036C000313831203134E08F3004D08F2004C08DC
:10037C00F1004B08F0000A168A1525240A128A117E
:10038C00F31BD9297308031DD8297208031DD8291A
:10039C007108031DD82902307002031DD5290318DA
:1003AC00D829D9296A2A831603134C08C6004B088E
:1003BC00C5004A08C4004908C300A32A4130F30011
:1003CC002030F2000030F1000030F00083160313EF
:1003DC004C08F7004B08F6004A08F5004908F400F1
:1003EC000A128A1582200A128A11730883160313C3
:1003FC00CC007208CB007108CA007008C900FF302D
:10040C00B0070318B10AFF30B10743088312031376
:10041C00CB0083160313440883120313CC008316FA
:10042C000313450883120313CD00831603134608E8
:10043C0083120313CE00831603134908831203138C
:10044C00CB02831603134A08031C4A0F2E2A312AA7
:10045C0083120313CC02831603134B08031C4B0F9C
:10046C00382A3B2A83120313CD02831603134C083C
:10047C00031C4C0F422A452A83120313CE02831607
:10048C000313831203134E08F3004D08F2004C08BB
:10049C00F1004B08F0000A168A1525240A128A115D
:1004AC00F31B692A7308031D682A7208031D682A46
:1004BC007108031D682A02307002031D652A031897
:1004CC00682A692A6A2AD9298316031346088312D3
:1004DC000313BD0083160313450883120313BC00DA
:1004EC0083160313440883120313BB0083160313F0
:1004FC00430883120313BA00831603134C088312A8
:10050C000313C100831603134B0883120313C0009B
:10051C00831603134A0883120313BF0083160313B5
:10052C00490883120313BE000A168A113D220A12CF
:10053C008A11031CA22AA32AE429831203134A0852
:10054C0083160313A9002908AA00E91BAE2AAF2AB7
:10055C00B42A6908A3006808A200B82A0630A200D1
:10056C000030A3002308AE002208AD000130AD0717
:10057C000318AE0A0030AE0766302A06031DC72AE0
:10058C00C82AE22AB11FCB2ACC2AD62A3F30CC006B
:10059C008030CB000030CA000030C900B001B1017E
:1005AC00673029060319DB2ADC2AE22A3008AD075A
:1005BC000318AE0A3108AE07C001C1014608BB00E2
:1005CC004508BA004408B9004308B8004C08B70005
:1005DC004B08B6004A08B5004908B400F12B831645
:1005EC0003134C08F3004B08F2004A08F1004908C9
:1005FC00F0003B08F7003A08F6003908F500380817
:10060C00F4000A128A1582200A128A1173088312C6
:10061C000313B0007208AF007108AE007008AD0093
:10062C000A168A1199230A128A11831203133008AD
:10063C0083160313BF00831203132F0883160313AF
:10064C00BE00831203132E0883160313BD008312FE
:10065C0003132D0883160313BC003F0883120313E6
:10066C00BD00831603133E0883120313BC008316CC
:10067C0003133D0883120313BB00831603133C08BA
:10068C0083120313BA000A168A1195200A128A11D2
:10069C00831203133B0883160313AC00831203135A
:1006AC003A0883160313AB004C0883120313A700FC
:1006BC00831603134B0883120313A600831603132C
:1006CC004A0883120313A5008316031349088312E7
:1006DC000313A400831603133F0883120313A30010
:1006EC00831603133E0883120313A200831603130D
:1006FC003D0883120313A100831603133C088312D5
:10070C000313A0000A128A15BB240A128A11831241
:10071C0003132308BD002208BC002108BB002008DD
:10072C00BA00831603133B0883120313C10083160C
:10073C0003133A0883120313C000831603133908FA
:10074C0083120313BF008316031338088312031399
:10075C00BE000A168A1576240A128A118312031314
:10076C003D0883160313BB00831203133C08831646
:10077C000313BA00831203133B0883160313B90047
:10078C00831203133A0883160313B8004130F300A5
:10079C002030F2000030F1000030F0004C08F7007F
:1007AC004B08F6004A08F5004908F4000A128A15AD
:1007BC0082200A128A11730883160313CC00720864
:1007CC00CB007108CA007008C9000130C0070318BB
:1007DC00C10A0030C1074108803A83120313CB00D1
:1007EC00831603132E08803A831203134B02031D46
:1007FC00032C831603132D084002031C062C072C14
:10080C00F52A403083120313A300A030A20000305D
:10081C00A1000030A000831603134C0883120313AD
:10082C00A700831603134B0883120313A600831629
:10083C0003134A0883120313A500831603134908F4
:10084C0083120313A4000A128A15BB240A128A11FC
:10085C0083120313230883160313BF00831203139D
:10086C00220883160313BE00831203132108831678
:10087C000313BD0083120313200883160313BC005B
:10088C003B0883120313BD00831603133A0883122B
:10089C000313BC0083160313390883120313BB0024
:1008AC0083160313380883120313BA008316031339
:1008BC003F0883120313C100831603133E088312EF
:1008CC000313C000831603133D0883120313BF00E8
:1008DC00831603133C0883120313BE000A168A11F5
:1008EC003D220A128A1103187C2C7D2C882C003096
:1008FC0083160313BF000030BE000030BD00003073
:10090C00BC00B12C831603133B08F3003A08F20029
:10091C003908F1003808F0003F08F7003E08F600EF
:10092C003D08F5003C08F4000A168A1504270A1243
:10093C008A11031CA22CA32CB12C831603132B1885
:10094C00A82CA92CB12C0030BF000030BE00003008
:10095C00BD000030BC00831603133F08F3003E08B3
:10096C00F2003D08F1003C08F0004608F70045088D
:10097C00F6004408F5004308F4000A128A155722C1
:10098C000A128A11730883160313BB007208BA008B
:10099C007108B9007008B8003B0883120313BD003E
:1009AC00831603133A0883120313BC008316031334
:1009BC00390883120313BB00831603133808831200
:1009CC000313BA004130A3002030A2000030A10074
:1009DC000030A00083160313370883120313A700FB
:1009EC0083160313360883120313A600831603130E
:1009FC00350883120313A5008316031334088312DE
:100A0C000313A4000A128A15BB240A128A1183123A
:100A1C0003132308C1002208C0002108BF002008CE
:100A2C00BE000A168A113D220A128A11031C1F2DC0
:100A3C00202D732D013083160313B0070318B10A50
:100A4C000030B107413083120313A3002030A20001
:100A5C000030A1000030A000831603133708831266
:100A6C000313A70083160313360883120313A6007F
:100A7C0083160313350883120313A500831603137F
:100A8C00340883120313A4000A128A15BB240A1219
:100A9C008A1183120313230883160313B7008312DE
:100AAC000313220883160313B600831203132108C1
:100ABC0083160313B5008312031320088316031344
:100ACC00B40066302A06031D6C2D6D2D732D01307C
:100ADC00AD070318AE0A0030AE07831603133708B0
:100AEC00CC003608CB003508CA003408C9003108E0
:100AFC00A1003008A000A801A401A501C001C101FA
:100B0C000B2F831603134C08F3004B08F2004A0812
:100B1C00F1004908F0003B08F7003A08F6003908E4
:100B2C00F5003808F4000A128A1582200A128A117C
:100B3C00730883120313B0007208AF007108AE0083
:100B4C007008AD000A168A1199230A128A118312B1
:100B5C000313300883160313BF00831203132F08EB
:100B6C0083160313BE00831203132E08831603137C
:100B7C00BD00831203132D0883160313BC003F081A
:100B8C0083120313BD00831603133E088312031351
:100B9C00BC00831603133D0883120313BB0083169A
:100BAC0003133C0883120313BA000A168A1195200A
:100BBC000A128A11831203133B08803AFF0080301B
:100BCC007F02031DEB2D0A303A020318EE2DEF2D98
:100BDC00192E831603133F0883120313BD008316CB
:100BEC0003133E0883120313BC00831603133D0842
:100BFC0083120313BB00831603133C0883120313E5
:100C0C00BA000A168A1195200A128A11831203134C
:100C1C003B0883160313AC00831203133A088316A4
:100C2C000313AB001F2E093083160313AB000030E7
:100C3C00AC002808031D232E242E552EA11F272E71
:100C4C00282E552E4708903E84002E3083178000A6
:100C5C000130C7070318C80A0030C807FF30B207B5
:100C6C000318B30AFF30B307A801A80A552E47088A
:100C7C00903E84003030831780000130C707031882
:100C8C00C80A0030C807FF30B2070318B30AFF3098
:100C9C00B307FF30A4070318A50AFF30A5072408E3
:100CAC002504031D5A2E5B2E3D2E4708903E8400D2
:100CBC002B08303E831780000130C7070318C80A81
:100CCC000030C807FF30B2070318B30AFF30B30770
:100CDC004C0883120313A700831603134B088312CB
:100CEC000313A600831603134A0883120313A500EB
:100CFC0083160313490883120313A40083160313EA
:100D0C003F0883120313A300831603133E088312B8
:100D1C000313A200831603133D0883120313A100CF
:100D2C00831603133C0883120313A0000A128A15BE
:100D3C00BB240A128A11831203132308BD00220854
:100D4C00BC002108BB002008BA00831603133B0823
:100D5C0083120313C100831603133A08831203137F
:100D6C00C00083160313390883120313BF008316C4
:100D7C000313380883120313BE000A168A1576244F
:100D8C000A128A11831203133D0883160313BB0046
:100D9C00831203133C0883160313BA008312031344
:100DAC003B0883160313B900831203133A08831606
:100DBC000313B8004130F3002030F2000030F10092
:100DCC000030F0004C08F7004B08F6004A08F5001C
:100DDC004908F4000A128A1582200A128A11730833
:100DEC0083160313CC007208CB007108CA0070087C
:100DFC00C900FF30A0070318A10AFF30A10701307A
:100E0C00C0070318C10A0030C1074108803A831299
:100E1C000313CB00831603132E08803A831203139B
:100E2C004B02031D1D2F831603132D0840020318BC
:100E3C00202F212F302F831603134808803AFF00F0
:100E4C0080307F02031D2C2F4B304702031C2F2FA9
:100E5C00302F872D4F3083160313C0000030C10094
:100E6C004008903E8400831780019030F0004808C1
:100E7C00F2004708F100903083120313CB00831665
:100E8C000313470883120313CB0283160313400882
:100E9C00831203134B070A168A15E5240A128A11CA
:100EAC008316031347084002C7004808031C480A6E
:100EBC004102C8004208031D642F662F0130672FC2
:100ECC00003083120313CB00CC014B0883160313A1
:100EDC00C000831203134C0883160313C100831242
:100EEC000313EF1C7A2F7B2FC02F902FFF3083160C
:100EFC000313C7070318C80AFF30C8074708903EFA
:100F0C008400303083178000FF30B2070318B30A17
:100F1C00FF30B307831603134108803A831203137F
:100F2C00CB00831603133308803A831203134B024E
:100F3C00031DA42F83160313320840020318A72F96
:100F4C00A82FC02F831603134108803A8312031372
:100F5C00CB00831603134808803A831203134B0209
:100F6C00031DBC2F8316031347084002031CBF2F1D
:100F7C00C02F7C2F8316031342080319C62FC72FCB
:100F8C00D32FFF30C7070318C80AFF30C80747081C
:100F9C00903E84004208831780004008B20241084A
:100FAC00031CB303B3024708903EFB003308FD005B
:100FBC003208FC002F080A168A1544260A128A11D8
:100FCC00080083120313EF018313DE308400EA3030
:100FDC000A168A15F0230A128A118317903084009E
:100FEC00E0300A168A15F0230A128A1183010A16B8
:040FFC008A119A2993
:1010080083120313861D09280A282B280230F600AC
:101018004530F500A930F400F40B1028F50B102822
:10102800F60B1028172883120313861D1C281D2869
:1010380081280030F0000130F1000A168A153225A7
:101048000A128A1583120313061486108128061EB5
:101058002E282F2850280230F6004530F500A930F8
:10106800F400F40B3528F50B3528F60B35283C2809
:1010780083120313061E4128422881280030F000FD
:101088000230F1000A168A1532250A128A158312CF
:101098000313061486108128861E532854287528A1
:1010A8000230F6004530F500A930F400F40B5A2858
:1010B800F50B5A28F60B5A28612883120313861E4B
:1010C8006628672881280030F0000330F1000A16EE
:1010D8008A1532250A128A158312031306108614FC
:1010E80081280030F000F1000A168A1532250A120C
:1010F8008A158312031306108610080077088039B2
:1011080083120313A4007708F8007807AB00F61FD2
:101118008E288F2890282B142B080319942895289B
:10112800A5282B0A031D99289A28A2280030F70021
:101138000030F6000030F5000030F400F617F70133
:10114800AD280030F7000030F6000030F500003020
:10115800F40073088039FF007F08A4067308F800BC
:101168007807AC00F21FB928BA28BB282C142C0821
:101178000319BF28C028D0282C0A031DC428C52855
:10118800CD280030F3000030F2000030F1000030CC
:10119800F000F217F301D8280030F3000030F20015
:1011A8000030F1000030F00073087204710470041C
:1011B800031DDF28E028F9280030F7000030F6008A
:1011C8000030F5000030F4008030F6047F30F7047A
:1011D8002408FF007F08F7047708F3007608F20078
:1011E8007508F1007408F000562A2B08031DFD2825
:1011F800FE2807290030F3000030F2000030F1002B
:101208000030F000562A2B08F800F9017908FB0095
:101218002C087802FA00031CFB037A087F3EA5001D
:101228007B080318013E003EA6007708A300760855
:10123800A2007508A1007408A0000030F700003073
:10124800F6000030F5000030F4000030AA0000304D
:10125800A9000030A8000030A700AC0183292C08A1
:1012680003193729382958290130F8000310A00D2F
:10127800A10DA20DA30DF80B3A290130F8000310B7
:10128800F40DF50DF60DF70DF80B4329AA1F4D299E
:101298004E294F2974140130F8000310A70DA80D2A
:1012A800A90DAA0DF80B512973082302031D6629FD
:1012B80072082202031D662971082102031D66298E
:1012C80070082002031C69296A297F292A177008D7
:1012D800A0027108031C710F72297329A1027208F8
:1012E800031C720F78297929A2027308031C730F53
:1012F8007E297F29A3020130FF007F08AC071A303E
:101308002C02031C88298929332923082204210453
:101318002004031990299129B0292714B0290130F4
:10132800F8000310F40DF50DF60DF70DF80B9529DF
:10133800AA1F9F29A029A12974140130F8000310BD
:10134800A70DA80DA90DAA0DF80BA329FF30A50715
:101358000318A60AFF30A607F61FB329B429932954
:10136800AC01AA1FB829B929D529FF302705F800EB
:10137800FF302805F900FF302905FA007F302A05DB
:10138800FB007B087A04790478040319CC29CD2959
:10139800D029AC01AC0AD529741CD329D429D52964
:1013A800CD292C080319D929DA290B2A0130F40789
:1013B800003003180130F507003003180130F60734
:1013C800003003180130F707771CEB29EC290B2AAA
:1013D8007408F8007508F9007608FA007708FB0029
:1013E8000130FC007B0DFB0CFA0CF90CF80CFC0B23
:1013F800F6297B08F7007A08F6007908F5007808DE
:10140800F4000130A5070318A60A0030A60726082D
:10141800803AFF0080307F02031D142AFF30250226
:10142800031C172A182A262AFF3083120313A50043
:101438000030A6000030F7000030F6000030F5005C
:101448000030F400831203132608803AFF0080302E
:101458007F02031D312A013025020318342A352A58
:10146800422A83120313A501A6010030F7000030B9
:10147800F6000030F5000030F400A40183120313D5
:101488002508AB002B1C492A4A2A4C2AF617502A51
:101498007F30FF007F08F6052B08F8000310780C52
:1014A800F700EC28080073088039F80073088312E5
:1014B8000313A0002007FA00F21F632A642A652A92
:1014C8007A147A080319692A6A2A7A2A7A0A031D79
:1014D8006E2A6F2A772A0030F3000030F2000030BD
:1014E800F1000030F000F217F301822A0030F30017
:1014F8000030F2000030F1000030F0007708803949
:10150800F9007908780603198A2A8B2A8C2A781711
:101518007708A0002007F900F61F932A942A952A35
:10152800791479080319992A9A2AAA2A790A031D8B
:101538009E2A9F2AA72A0030F7000030F6000030C4
:10154800F5000030F400F617F701B22A0030F70072
:101558000030F6000030F5000030F4007A08790217
:101568000318B72AB82ADE2A781FBB2ABC2AC02A41
:101578008030FF007F08F8067A08FB007908FA0037
:101588007B08F9007008FB007408F0007B08F40081
:101598007108FB007508F1007B08F5007208FB0074
:1015A8007608F2007B08F6007308FB007708F30062
:1015B8007B08F700FB017908A000A1012108A3001E
:1015C8007A082002A200031CA3032308803AFF0024
:1015D80080307F02031DF22A1A302202031CF52AEA
:1015E800F62A2F2B7308720471047004031DFD2A58
:1015F800FF2A0130002B0030FB000030F3000030E0
:10160800F2000030F1000030F0007908FA00352BC4
:101618007B1C0F2B102B192B7B0883120313A000A4
:101628000310200C0138FB001B2B0310FB0C701C53
:101638001E2B1F2B202BFB17013083120313A00036
:10164800730DF30CF20CF10CF00CA00B242B0130F1
:10165800FF007F08FA0779087A02031C342B352B20
:101668000C2B781B382B392B862B7A08031D3D2B26
:101678003E2B472B0030F3000030F2000030F10021
:101688000030F000BA2C7408F0077508031103182D
:10169800013E0319502BF107760803110318013E88
:1016A8000319572BF207770803110318013E031992
:1016B8005E2BF307731C612B622B3E2C7B1C652B66
:1016C800662B6F2B7B0883120313A0000310200CDA
:1016D8000138FB00712B0310FB0C701C742B752B4D
:1016E800762BFB17013083120313A000730DF30C44
:1016F800F20CF10CF00CA00B7A2B0130FF007F08E4
:10170800FA073E2C7308803AFF007708803A7F0278
:10171800031D982B76087202031D982B7508710219
:10172800031D982B7408700203189B2B9C2BF62B17
:10173800FF3083120313A000FF30A100FF30A20086
:10174800FF30A3007408A4007508A5007608A60059
:101758007708A7007008A4027108031C710FB52B45
:10176800B62BA5027208031C720FBB2BBC2BA6025A
:101778007308031C730FC12BC22BA7022408A007F0
:1017880025080318250FC92BCA2BA10726080318FB
:10179800260FCF2BD02BA20727080318270AA30749
:1017A8002308F3002208F2002108F1002008F000C5
:1017B8008030FF007F08F806FB09FB0A7B08031D41
:1017C800E62BE72B042C0130F0070030031801301A
:1017D800F107003003180130F20700300318013018
:1017E800F307042C7408F0027508031C750FF10246
:1017F8007608031C760FF2027708031C770FF302B2
:101808007308720471047004031D0B2C0C2C3A2C01
:101818007B08031D102C112C3A2C0030F3000030EB
:10182800F2000030F1000030F000BA2C01308312D1
:101838000313A0000310F00DF10DF20DF30DA00B32
:101848001E2CFB1F282C292C2A2C70147B1C2D2CB9
:101858002E2C312C0314FB0D332C0310FB0D7A08AE
:101868000319372C382C3A2C0130FA02F21F3D2C80
:101878003E2C1A2CF901FB1F422C432C512C7B08BF
:101888007F390319482C492C4C2CF901F90A512CA1
:10189800701C4F2C502C512C492C79080319552CAD
:1018A800562C8C2C0130F007003003180130F1075A
:1018B800003003180130F207003003180130F30735
:1018C800731C672C682C8C2C700883120313A000DF
:1018D8007108A1007208A2007308A3000130A400D7
:1018E800230DA30CA20CA10CA00CA40B742C230890
:1018F800F3002208F2002108F1002008F0007A0A1B
:101908000319872C882C8C2C0130FF007F08FA07DC
:101918007A0A0319902C912C962C7A08031D952C81
:10192800962CA42C0030F3000030F2000030F100B7
:101938000030F0007A08031DA22CA32CA42CF80177
:101948007A1CA72CA82CAA2CF217AE2C7F30FF00EB
:101958007F08F2057A0883120313A0000310200CF5
:10196800F300F81FB82CB92CBA2CF317080083120F
:10197800031323088039AD002308A8002807B30003
:10198800A21FC72CC82CC92C331433080319CD2C1B
:10199800CE2CDD2C330A031DD22CD32CDB2C0030AB
:1019A800A3000030A2000030A1000030A000A21760
:1019B800E52C0030A3000030A2000030A100003068
:1019C800A00027088039FF007F08AD062708A80077
:1019D8002807B200A61FF12CF22CF32C321432087F
:1019E8000319F72CF82C072D320A031DFC2CFD2CAB
:1019F800052D0030A7000030A6000030A5000030FB
:101A0800A400A6170F2D0030A7000030A600003054
:101A1800A5000030A40032080319132D142D192D28
:101A28003308031D182D192D222D0030A300003076
:101A3800A2000030A1000030A000FF2F2008F00015
:101A480026080A168A150B250A128A1571088312A8
:101A58000313B9007008B8003808A800A901AA0142
:101A6800AB012B08B1002A08B0002908AF002808EC
:101A7800AE003908A800A901AA01AB012B08B700DC
:101A88002A08B6002908B5002808B4002108F00083
:101A980025080A168A150B250A128A157108831259
:101AA8000313B9007008B8003808A800A901AA01F2
:101AB800AB012808AE07290803110318013E0319D2
:101AC800662DAF072A0803110318013E03196D2D6F
:101AD800B0072B0803110318013E0319742DB10731
:101AE8003908A800A901AA01AB012808B4072908E8
:101AF80003110318013E0319822DB5072A080311A3
:101B08000318013E0319892DB6072B080311031882
:101B1800013E0319902DB7072208F00024080A1681
:101B28008A150B250A128A15710883120313B90046
:101B38007008B8003808A800A901AA01AB01280854
:101B4800AE07290803110318013E0319AC2DAF078E
:101B58002A0803110318013E0319B32DB0072B08F7
:101B680003110318013E0319BA2DB1073908A8005B
:101B7800A901AA01AB012808B40729080311031811
:101B8800013E0319C82DB5072A0803110318013EA1
:101B98000319CF2DB6072B0803110318013E0319AB
:101BA800D62DB7070830A8000310AE0DAF0DB00D45
:101BB800B10DA80BD82D2108F00024080A168A15A3
:101BC8000B250A128A15710883120313B9007008CD
:101BD800B8003808A8003908A900AA01AB012808EC
:101BE800AE07290803110318013E0319FC2DAF079E
:101BF8002A0803110318013E0319032EB0072B0806
:101C080003110318013E03190A2EB1072008F0003A
:101C180025080A168A150B250A128A1571088312D7
:101C28000313B9007008B8003808A8003908A900DB
:101C3800AA01AB012808AE07290803110318013EC1
:101C48000319272EAF072A0803110318013E0319A9
:101C58002E2EB0072B0803110318013E0319352E49
:101C6800B1070830A8000310AE0DAF0DB00DB10DCF
:101C7800A80B372E2008F00024080A168A150B2511
:101C88000A128A15710883120313B9007008B80084
:101C98003808A8003908A900AA01AB012808AE072E
:101CA800290803110318013E03195B2EAF072A0800
:101CB80003110318013E0319622EB0072B08031104
:101CC8000318013E0319692EB1072108F000260800
:101CD8000A168A150B250A128A157108831203132E
:101CE800B9007008B8003808A8003908A900AA0186
:101CF800AB012808B407290803110318013E03198A
:101D0800862EB5072A0803110318013E03198D2EE4
:101D1800B6072B0803110318013E0319942EB707C1
:101D28002208F00025080A168A150B250A128A15BA
:101D3800710883120313B9007008B8003808A800A6
:101D48003908A900AA01AB012808B407290803111A
:101D58000318013E0319B12EB5072A080311031809
:101D6800013E0319B82EB6072B0803110318013ECC
:101D78000319BF2EB7072208F00026080A168A158D
:101D88000B250A128A15710883120313B90070080B
:101D9800B8003808A8003908A900AA01AB01083022
:101DA8000310A80DA90DAA0DAB0DFF3E031DD42EDF
:101DB8002808B407290803110318013E0319E52E62
:101DC800B5072A0803110318013E0319EC2EB607BC
:101DD8002B0803110318013E0319F32EB7072E0829
:101DE800A8002F08A9003008AA003108AB00183055
:101DF8000310AB0CAA0CA90CA80CFF3E031DFC2E6B
:101E08002808B407290803110318013E03190D2FE8
:101E1800B5072A0803110318013E0319142FB60742
:101E28002B0803110318013E03191B2FB7070830AD
:101E3800A8000310AE0DAF0DB00DB10DA80B1D2FEE
:101E480033083207A800A901A90D2808823EB80066
:101E580029080318013EFF3EB9004F2F0130A800A2
:101E68000310B40DB50DB60DB70DA80B342FB11F67
:101E78003E2F3F2F402F34140130A8000310AE0D21
:101E8800AF0DB00DB10DA80B422FFF30B8070318E6
:101E9800B90AFF30B907B61F522F532F322FB2019C
:101EA800B11F572F582F742FFF302E05A800FF3071
:101EB8002F05A900FF303005AA007F303105AB009F
:101EC8002B082A042904280403196B2F6C2F6F2F61
:101ED800B201B20A742F341C722F732F742F6C2F17
:101EE80032080319782F792FAA2F0130B407003050
:101EF80003180130B507003003180130B607003069
:101F080003180130B707371C8A2F8B2FAA2F3408E4
:101F1800A8003508A9003608AA003708AB00013028
:101F2800AC002B0DAB0CAA0CA90CA80CAC0B952F74
:101F38002B08B7002A08B6002908B5002808B400FD
:101F48000130B8070318B90A0030B9073908803AD0
:101F5800FF0080307F02031DB32FFF303802031CBF
:101F6800B62FB72FC22F7F3083120313B7008030EC
:101F7800B6000030B5000030B400F32F831203130D
:101F88003908803AFF0080307F02031DCD2F0130D1
:101F980038020318D02FD12FDD2F003083120313FE
:101FA800B7000030B6000030B5000030B400AD0115
:101FB800F32F831203133808B300FF30B405FF3042
:101FC800B5057F30B6050030B705331CEC2FED2F73
:101FD800EE2FB6173308A8000310280CB7002D08F9
:101FE800FF007F08B7043708A3003608A2003508A9
:101FF800A1003408A0000800FF1B0A2883137F18DB
:1020080083170008840A0319FF0A080010308A00A1
:102018000408840A820700348834133400340034F6
:102028005434683465342034743465346D34703411
:102038006534723461347434753472346534003400
:102048004434653467347234653465342034433439
:1020580065346C34733469347534733400346934DA
:10206800733420344E346F3472346D3461346C34CC
:10207800003469347334203443346F346C3464343A
:102088000034543465346D3470343A3420340034B8
:1020980069347334203448346F347434003425344C
:1020A80030342E3432346634003469346E34663455
:1020B80000346E3461346E3400348312031391019A
:1020C80012150800831603138711071208128812C5
:1020D800081388138230F600DD30F500F50B7228FE
:1020E800F60B7228772802300A168A15DA250A169E
:1020F8008A1128300A168A15DA250A168A110C3030
:102108000A168A15DA250A168A1106300A168A1559
:10211800DA250A168A110A168A1515240A168A114A
:1021280008000310831203133C0D3D0DC300430840
:10213800031D9F28A028A9280030BD000030BC003E
:102148000030BB000030BA000C293A08BE003B083A
:10215800BF003C08C0003D08C1001F300310C10C7F
:10216800C00CBF0CBE0CFF3E031DB2283E08C200C7
:10217800BC17FF30BA05FF30BB05FF30BC05003087
:10218800BD059630C302C31FCA28CB28E5284308DB
:10219800803A973E0318D128D228D328A0280130A6
:1021A8000310BD0CBC0CBB0CBA0CFF3E031DD4289D
:1021B8000130FF007F08C307031DE328E428D32864
:1021C800FC2820304302031CEA28EB28F728A02823
:1021D8000130BE000310BA0DBB0DBC0DBD0DBE0B0A
:1021E800EE280130C3024308031DFB28FC28EC2815
:1021F80042080319002901290C29BA09BB09BC099D
:10220800BD09BA0A0319BB0A0319BC0A0319BD0A96
:10221800080083160313650883120313A5008316A9
:102228000313640883120313A400831603136308BB
:1022380083120313A3008316031362088312031384
:10224800A2007308A5007208A4007108A300700812
:10225800A2002208F4002308F5002408F600250847
:10226800F70017300310F70CF60CF50CF40CFF3ED2
:10227800031D3629FF307405A00000307505A10044
:1022880020082104031D49294A296D292208F40040
:102298002308F5002408F6002508F700013003108C
:1022A800F40DF50DF60DF70DFF3E031D53297708C4
:1022B800760475047404031D6229632968290230B1
:1022C800F0000030F10099290330F0000030F100EF
:1022D8009929200A2104031D7229732995292208A6
:1022E800F4002308F5002408F6002508F700093053
:1022F8000310F40DF50DF60DF70DFF3E031D7C29B7
:10230800770876047504740403198B298D29013024
:102318008E290030F800F9017808F0007908F100FA
:1023280099290430F0000030F10008000A168A15D7
:1023380001240A168A11003083120313A300003007
:10234800A2001330A1008830A0000A168A15BA2608
:102358000A168A110A168A1161200A168A110A16A3
:102368008A15F8230A168A110A168A1166200A168F
:102378008A110A128A1504200A168A118312031375
:102388001F151F19C829C929C5291E088316031333
:10239800DB001E08DA005A08F0005B08F100003084
:1023A800F11BFF30F200F30001300A168A11E12216
:1023B8000A168A11730883120313A7007208A6006D
:1023C8007108A5007008A4003E30A300F930A200EF
:1023D800DB30A1002330A0000A128A15BB240A169C
:1023E8008A11831203132308BD002208BC002108A8
:1023F800BB002008BA000A168A1195200A168A110D
:10240800831203133B0883160313DD00831203139F
:102418003A0883160313DC005D08F1005C08F0003D
:102428000A168A157E260A168A11831603135C0873
:10243800F0005D08F1000030F11BFF30F200F300FE
:1024480001300A168A11E1220A168A1173088316C6
:102458000313D9007208D8007108D7007008D60095
:102468000A168A11B9250A168A11BD290A128A1173
:1024780000280030831203133A05C20000303B05E0
:10248800C30080303C05C4007F303D05C5004508C9
:10249800440443044204031D522A532A5B2A003091
:1024A800BD000030BC000030BB000030BA00003076
:1024B8003E05C20000303F05C30080304005C4001F
:1024C8007F304105C5004508440443044204031D08
:1024D8006E2A6F2A772A0030C1000030C000003011
:1024E800BF000030BE00BD1F7A2A7B2A9F2A003019
:1024F800C2000030C3000030C4008030C5003A0874
:10250800C2023B08031C3B0F8A2A8B2AC3023C08E1
:10251800031C3C0F902A912AC4023D08031C3D0F5E
:10252800962A972AC5024508BD004408BC004308FE
:10253800BB004208BA00C11FA22AA32AC72A00303A
:10254800C2000030C3000030C4008030C5003E081F
:10255800C2023F08031C3F0FB22AB32AC302400835
:10256800031C400FB82AB92AC4024108031C410FB2
:10257800BE2ABF2AC5024508C1004408C000430856
:10258800BF004208BE008030BD068030C106410849
:102598003D02031DD92A40083C02031DD92A3F08E1
:1025A8003B02031DD92A3E083A020318DC2ADD2A19
:1025B800DF2A0310E02A03140800F800780803193A
:1025C800E62AE72AFB2AF31FEA2AEB2AFB2A7009E4
:1025D800FA007109FB007209FC007309FD00FA0A90
:1025E8000319FB0A0319FC0A0319FD0A032B7308D4
:1025F800FD007208FC007108FB007008FA007308FF
:10260800720471047004031D0A2B0B2B142B003069
:10261800F3000030F2000030F1000030F000982B99
:102628009630F900242B0130FF007F08F9070130AC
:102638000310FD0CFC0CFB0CFA0CFF3E031D1C2BBD
:10264800FE307D05031D292B2A2B172B462B013025
:10265800FF007F08F9070130FA070030031801303E
:10266800FB07003003180130FC0700300318013065
:10267800FD0701300310FD0CFC0CFB0CFA0CFF3EAF
:10268800031D3E2BFF307D05031D4B2B4C2B2B2BA5
:10269800582B0130F9020130F4000310FA0DFB0D3C
:1026A800FC0DFD0DF40B512BFC1B5B2B5C2B622BE3
:1026B800023079020318612B622B4D2B7918652B98
:1026C800662B6E2BFF30FA05FF30FB057F30FC05CB
:1026D800FF30FD050310F90C7908F400F501F60147
:1026E800F70118300310F40DF50DF60DF70DFF3E48
:1026F800031D762B7408FA047508FB047608FC049D
:102708007708FD04780803198A2B8B2B902BF31F6D
:102718008E2B8F2B902BFD177D08F3007C08F20081
:102728007B08F1007A08F00008008316031361089B
:1027380083120313C0008316031360088312031364
:10274800BF00831603135F0883120313BE008316AA
:1027580003135E0883120313BD003008C0002F085E
:10276800BF002E08BE002D08BD003D08B1003E0880
:10277800B2003F08B3004008B40017300310B40C8F
:10278800B30CB20CB10CFF3E031DC22BFF30310558
:10279800B50000303205B6003508813EBB0036086A
:1027A8000318013EFF3EBC003C08803AFF00803021
:1027B8007F02031DE12B17303B02031CE42BE52BA2
:1027C800E62BA72C83120313BC1BEB2BEC2B5C2CE6
:1027D8003B0AFF00FF30B100FF30B2007F30B3008A
:1027E8000030B400FC2B340DB40CB30CB20CB10C9B
:1027F800FF0BF72B3408BA003308B9003208B800C9
:102808003108B70037083D05B10038083E05B20069
:1028180039083F05B3003A084005B40034083304CA
:1028280032043104031D192C1A2C1B2CE52B3D08EE
:10283800B1003E08B2003F08B3004008B4001F30A2
:102848000310B40CB30CB20CB10CFF3E031D242CC6
:1028580034083304320431040319332C342C4B2C40
:102868003708BD07380803110318013E03193D2C2A
:10287800BE07390803110318013E0319442CBF078A
:102888003A0803110318013E03194B2CC0073709F6
:10289800B1003809B2003909B3003A09B400310867
:1028A800BD053208BE053308BF053408C0059F2C96
:1028B8003D08B1003E08B2003F08B3004008B4002C
:1028C8001F300310B40CB30CB20CB10CFF3E031D47
:1028D800652C3408330432043104031D742C752C20
:1028E8007E2C0030C0000030BF000030BE00003039
:1028F800BD009F2C3D08B1003E08B2003F08B30060
:102908004008B40001300310B10DB20DB30DB40D81
:10291800FF3E031D872C34083304320431040319A5
:10292800962C972C9F2CBF30C0008030BF00003001
:10293800BE000030BD004008B0003F08AF003E08B0
:10294800AE003D08AD00080083160313AF00C201B6
:1029580083120313490883160313C6008312031353
:10296800480883160313C500831203134708831608
:102978000313C40083120313460883160313C3000A
:10298800460883120313BD008316031345088312F8
:102998000313BC0083160313440883120313BB00FC
:1029A80083160313430883120313BA000030C100CF
:1029B8000030C0000030BF000030BE000A168A1187
:1029C8003D220A168A110318EA2CEB2C062D8316D1
:1029D8000313C201C20A4608F3004508F20044087E
:1029E800F1004308F0000A168A150A240A168A110B
:1029F800730883160313C6007208C5007108C40063
:102A08007008C30083160313C701C8016708B30021
:102A18006608B20042080319122D132D232D42080F
:102A2800031D172D182D1D2D2B30A6000030A700D3
:102A3800212D2D30A6000030A7002608C200460828
:102A4800F3004508F2004408F1004308F0000A16B4
:102A58008A110D210A168A1170037104031D352D80
:102A6800362D6D2D83160313420803193C2D3D2D79
:102A78004D2D4208831603179000FF308316031369
:102A8800B2070318B30AFF30B3070130C70000309C
:102A9800C8004A30F0004708903E0A168A153A24C2
:102AA8000A168A11FD3083160313B2070318B30AF6
:102AB800FF30B3079030FB003308FD003208FC00FC
:102AC8002F080A168A1544260A168A110A128A112C
:102AD800E62F831603134608F3004508F20044085E
:102AE800F1004308F0000A168A110D210A168A110E
:102AF80070087104031D812D842D0A128A116D2816
:102B080083160313420803198A2D8B2D9B2D420827
:102B1800831603179000FF3083160313B2070318B8
:102B2800B30AFF30B3070130C7000030C8004E3089
:102B3800F0004708903E0A168A153A240A168A11A8
:102B4800FD3083160313B2070318B30AFF30B30727
:102B58009030FB003308FD003208FC002F080A16ED
:102B68008A1544260A168A116A2D0A168A1515240A
:102B78000A168A11F30100300A168A155B250A160F
:102B88008A113630F3008030F4000A168A15BF2403
:102B98000A168A11443083160313D1005908D50048
:102BA8005808D4005708D3005608D20069300A16CE
:102BB8008A1555240A168A116930F3000030F4008A
:102BC8000A168A15BF240A168A11F30101300A165B
:102BD8008A155B250A168A111530F3008030F40037
:102BE8000A168A15BF240A168A11F30102300A163A
:102BF8008A155B250A168A11413083120313BD001A
:102C08007030BC000030BB000030BA0083160313DC
:102C1800590883120313C10083160313580883123B
:102C28000313C00083160313570883120313BF004E
:102C380083160313560883120313BE000A168A115B
:102C48003D220A168A11031C2A2E2B2E452E0530EA
:102C5800F3008030F4000A168A15BF240A168A1178
:102C6800F30103300A168A155B250A168A112E30DD
:102C7800F3008030F4000A168A15BF240A168A1158
:102C8800CE2E413083120313BD007030BC000030DB
:102C9800BB000030BA0083160313590883120313CC
:102CA800C10083160313580883120313C000831648
:102CB8000313570883120313BF0083160313560820
:102CC80083120313BE000A168A113D220A168A11BE
:102CD80003186F2E702EB52E423083120313BD00D9
:102CE8000C30BC000030BB000030BA008316031360
:102CF800590883120313C10083160313580883125B
:102D08000313C00083160313570883120313BF006D
:102D180083160313560883120313BE000A168A117A
:102D28003D220A168A11031C9A2E9B2EB52E0530B9
:102D3800F3008030F4000A168A15BF240A168A1197
:102D4800F30103300A168A155B250A168A11243006
:102D5800F3008030F4000A168A15BF240A168A1177
:102D6800CE2E0530F3008030F4000A168A15BF24F1
:102D78000A168A11F30103300A168A155B250A160A
:102D88008A113D30F3008030F4000A168A15BF24FA
:102D98000A168A11080083120313D6008316031338
:102DA8004D0884008313000884000A168A110A203B
:102DB8000A168A11253A031DE22EE32EE62F01306A
:102DC800FF004D0884007F088007E601E701031033
:102DD80000300318013083120313EF00FF3083160D
:102DE8000313E800FF30E90083120313D5011C2FF9
:102DF80083120313EF140130FF00831603134D08E9
:102E080084007F0880071C2F83120313D501D50A7D
:102E18001C2F831603134D088400000884000A162B
:102E28008A110A200A168A11303A0319FC2E082F33
:102E3800831255080319212F222F0D2F83160313F0
:102E48004D088400000884000A168A110A200A1610
:102E58008A112E3A031D312F322F462F0130FF00E1
:102E68004D0884007F0880074E08F6004D080A16B2
:102E78008A15A8270A168A11770883160313E9000A
:102E88007608E8004D0884008313000883120313B2
:102E9800D800580884000A168A110A200A168A11CE
:102EA800D700602F0130FF007F08D8076B2F6C30E8
:102EB800D7006B2FD7016B2F57084C3A0319562FA1
:102EC8002A3A03195B2F0A3A0319562F5E2F58081E
:102ED80084000A168A110A200A168A11663A031D06
:102EE800762F772FDC2FA82F831603134E08840024
:102EF8000008FF00043080077F0884000008831260
:102F08000313D100840A0008D200840A0008D30001
:102F1800840A0008D400B02F831603134E088400D7
:102F28000008FF00043080077F088400000883122F
:102F38000313D100840A0008D200840A0008D300D1
:102F4800840A0008D400B02F57084C3A0319902F70
:102F5800203A0319782FB02F831603134D088400E5
:102F6800831203135808013E8000D12F5408C9006A
:102F78005308C8005208C7005108C6005808840002
:102F88000A168A110A200A168A11CA0056080A1651
:102F98008A11A8240A168A11FF2F580884000A16D5
:102FA8008A110A200A168A11663A0319BA2FDC2FE9
:102FB8000130FF00831603134D0884007F08831334
:102FC8008007FF2F4D088400000884000A168A1124
:102FD8000A200A168A1183120313CF00D0014F0862
:102FE800F0005008F1005608F2000A168A15522718
:082FF8000A168A11DC2F080003
:1037E00064008001840A0406031900340406F12BE6
:1037F0004130831203139F008030831603139F0010
:103800000800831603138615061686160610861002
:103810000711080073087204710470040319112C55
:10382000122C142C8030F306080001300A168A1579
:10383000DA250A168A152130F4007630F300F30BEE
:103840001F2CF40B1F2C00000800F31B282C292C24
:103850002A2C392C7009F0007109F1007209F2006C
:103860007309F300F00A0319F10A0319F20A0319A4
:10387000F30A0800F2007208F1000130F007FF308F
:10388000700784000A168A110A200A168A15FF009A
:10389000710884000130F1077F0883178000000859
:1038A000031D532C542C3D2C080083120313DC0001
:1038B000D230DD005C08DE00E001E101E701E80153
:1038C000831603135108CF005D30D0005E300A1616
:1038D0008A15AF250A168A158312031360085C0740
:1038E000DB005B08840083138001080080308312B2
:1038F0000313BD064108F3004008F2003F08F10041
:103900003E08F0003D08F7003C08F6003B08F500D3
:103910003A08F4000A128A1557220A168A15730803
:1039200083120313BD007208BC007108BB0070084D
:10393000BA000800F401F501701C9F2CA02CA62CE5
:103940007208F4070318F50A7308F507013003102D
:10395000F20DF30DFF3E031DA72C01300310F10CF7
:10396000F00CFF3E031DAE2C70087104031DB92C32
:10397000BA2C9C2C7508F1007408F0000800D42CB7
:103980007408FF00730884000A168A1100200A16C2
:103990008A150A168A150F260A168A150130F307AA
:1039A0000318F40A0030F407740883120313FF00AD
:1039B000730884000A168A1100200A168A15003A34
:1039C000031DE32CE42CC02C0800F4007008F60062
:1039D0007408F500FC2C7608840083170008F300B7
:1039E0000130FF007F08F607750884007308800027
:1039F0000130FF007F08F5070130F1020030031CA1
:103A0000F203F202710A031D092D720A031D092D2A
:103A10000A2DEB2C0800F800F401F5017008F20003
:103A2000F3017208F6007308F700781C182D192DA1
:103A30001F2D7608F4070318F50A7708F5070130FB
:103A40000310F60DF70DFF3E031D202D0310F80C9B
:103A50007808031D2C2D2D2D152D7508F1007408E7
:103A6000F000080004307102003003197002031CDA
:103A70003A2D3B2D3F2DFF30F0000330F10071084F
:103A8000F3007008F2000310F30CF20C0310F30CB7
:103A9000F20C720883120313950070080339F200C8
:103AA00004300310F20DFF3E031D512D1708CF39CE
:103AB000720497000800F400702D7308803EF50032
:103AC0007E2D7308C03EF5007E2D7308943EF500F0
:103AD0007E2D7308D43EF5007E2D8030F5007E2DBE
:103AE0007408003A03195D2D013A0319612D033A58
:103AF0000319652D013A0319692D6D2D75080A16F4
:103B00008A15DA250A168A15080083120313A30002
:103B1000A101A201A12D2008F900FA017908F00005
:103B20007A08F1007808F2000A168A1552270A1658
:103B30008A15013083120313A1070318A20A00306B
:103B4000A20721082307F9007908840083170008D9
:103B5000A0002008031DAD2DAE2D8B2D0800831273
:103B60000313D900831603134F0883120313DA00DB
:103B7000C72D5A3083160313CD005008CE00831290
:103B8000031359080A168A11CF260A168A158312BA
:103B900003135A0884000A168A110A200A168A1585
:103BA000003A031DD42DD52DB92D83160313CF0153
:103BB000D0010800F200831203138711F030720560
:103BC000F00008080F397004880007160D30F10066
:103BD000FB30F000F00BEA2DF10BEA2DEF2D8312F4
:103BE000031307127208F00004300310F00DFF3EBB
:103BF000031DF52DF0307005F10008080F39710430
:103C0000880007160D30F100FB30F000F00B062E97
:103C1000F10B062E0B2E8312031307120800F2007D
:103C2000831203138715F0307205F00008080F396E
:103C30007004880007160D30F100FB30F000F00B27
:103C40001F2EF10B1F2E242E83120313071272084E
:103C5000F00004300310F00DFF3E031D2A2EF0305B
:103C60007005F10008080F397104880007160D303F
:103C7000F100FB30F000F00B3B2EF10B3B2E402E01
:103C8000831203130712080083120313A700FD1FFA
:103C90004A2E4B2E4D2EFC01FD01A501A601652EDD
:103CA0002030F0000030F100831203132708F200E7
:103CB0000A168A1552270A168A1501308312031331
:103CC000A5070318A60A0030A6072608803AA40014
:103CD0007D08803A2402031D6F2E7C082502031CF8
:103CE000722E732E502E831203132708F8007B08C0
:103CF0000A168A1585250A168A15080083160313E5
:103D000088017108803AFF0080307F02031D8A2EEF
:103D10001030700203188D2E8E2E942E83120313F2
:103D2000081488100811B92E7108803AFF008030FD
:103D30007F02031D9D2E10307002031CA02EA12EA9
:103D4000B42E7108803AFF0080307F02031DAA2E36
:103D5000243070020318AD2EAE2EB42E831203133E
:103D6000081088140811B92E831203130810881044
:103D700008150800831203132008A4002108A500D9
:103D80002208A6002308A70002300310A40DA50DE9
:103D9000A60DA70DFF3E031DC52E2708F30026081C
:103DA000F2002508F1002408F0000130F70031305E
:103DB000F6002D30F5000030F4000A128A110720B9
:103DC0000A168A157008FF3E83120313A8007108B3
:103DD0000318013EFF3EA9000130290200300319FB
:103DE0002802031CF42EF52EF92EFF30A800003017
:103DF000A9002808831603139200043083120313CA
:103E000092000C309700080000307005F800003078
:103E10007105F90080307205FA007F307305FB00F0
:103E20007B087A0479047804031D172F182F202F9C
:103E30000030F3000030F2000030F1000030F000FC
:103E400000307405F80000307505F9008030760503
:103E5000FA007F307705FB007B087A047904780448
:103E6000031D332F342F3C2F0030F7000030F600B5
:103E70000030F5000030F40077087306031D4A2F68
:103E800076087206031D4A2F75087106031D4A2F16
:103E90007408700603194D2F4E2F502F0310512F09
:103EA0000314080072080319562F572F5C2F72084D
:103EB000031D5B2F5C2F632F70080A128A110620E6
:103EC0000A168A15A72F7208093E8400831300087A
:103ED000F300840A0008F400730874040319712FB6
:103EE000722F902F7208093E84000008F300840AA4
:103EF0000008F4007208023E84000008F500840AFD
:103F00000008F6007608803AF7007408803A7702D5
:103F1000031D8C2F7308750203188F2F902FA72F66
:103F20007208023E840083130008F30072088400C4
:103F300000087307F4007408840070088000720899
:103F4000023E840001308007840A0318800A0800BA
:103F5000FB00F901FA017B08840083130008840048
:103F60000A168A110A200A168A152A3A031DB92F41
:103F7000BA2FEA2F0130FF007B0884007F088007FA
:103F8000760884000008FF00023080077F08840064
:103F90000008F900840A0008FA00FB2F7A08F100F3
:103FA0007908F0000A30F2000030F3000A168A1592
:103FB0009A240A168A1578087007F9000030031849
:103FC00001307107FA000130FF007B0884007F0890
:103FD000831380077B088400000884000A168A1176
:103FE0000A200A168A15D03EF8000A307802031C0F
:103FF000FA2FFB2FCE2F7A08F7007908F600080079
:02400E00793FF8
:00000001FF
